{
  "contractName": "OrganicChain",
  "abi": [
    {
      "inputs": [],
      "stateMutability": "nonpayable",
      "type": "constructor"
    },
    {
      "anonymous": false,
      "inputs": [
        {
          "indexed": true,
          "internalType": "bytes32",
          "name": "role",
          "type": "bytes32"
        },
        {
          "indexed": true,
          "internalType": "bytes32",
          "name": "previousAdminRole",
          "type": "bytes32"
        },
        {
          "indexed": true,
          "internalType": "bytes32",
          "name": "newAdminRole",
          "type": "bytes32"
        }
      ],
      "name": "RoleAdminChanged",
      "type": "event"
    },
    {
      "anonymous": false,
      "inputs": [
        {
          "indexed": true,
          "internalType": "bytes32",
          "name": "role",
          "type": "bytes32"
        },
        {
          "indexed": true,
          "internalType": "address",
          "name": "account",
          "type": "address"
        },
        {
          "indexed": true,
          "internalType": "address",
          "name": "sender",
          "type": "address"
        }
      ],
      "name": "RoleGranted",
      "type": "event"
    },
    {
      "anonymous": false,
      "inputs": [
        {
          "indexed": true,
          "internalType": "bytes32",
          "name": "role",
          "type": "bytes32"
        },
        {
          "indexed": true,
          "internalType": "address",
          "name": "account",
          "type": "address"
        },
        {
          "indexed": true,
          "internalType": "address",
          "name": "sender",
          "type": "address"
        }
      ],
      "name": "RoleRevoked",
      "type": "event"
    },
    {
      "anonymous": false,
      "inputs": [
        {
          "indexed": false,
          "internalType": "address",
          "name": "_useraddr",
          "type": "address"
        },
        {
          "indexed": false,
          "internalType": "uint32",
          "name": "_areacovered",
          "type": "uint32"
        }
      ],
      "name": "farmAdded",
      "type": "event"
    },
    {
      "anonymous": false,
      "inputs": [
        {
          "indexed": false,
          "internalType": "address",
          "name": "_useraddr",
          "type": "address"
        },
        {
          "indexed": false,
          "internalType": "string",
          "name": "_name",
          "type": "string"
        },
        {
          "indexed": false,
          "internalType": "string",
          "name": "_role",
          "type": "string"
        }
      ],
      "name": "userCreated",
      "type": "event"
    },
    {
      "inputs": [],
      "name": "CONSUMER_ROLE",
      "outputs": [
        {
          "internalType": "bytes32",
          "name": "",
          "type": "bytes32"
        }
      ],
      "stateMutability": "view",
      "type": "function",
      "constant": true
    },
    {
      "inputs": [],
      "name": "DEFAULT_ADMIN_ROLE",
      "outputs": [
        {
          "internalType": "bytes32",
          "name": "",
          "type": "bytes32"
        }
      ],
      "stateMutability": "view",
      "type": "function",
      "constant": true
    },
    {
      "inputs": [],
      "name": "FARMER_ROLE",
      "outputs": [
        {
          "internalType": "bytes32",
          "name": "",
          "type": "bytes32"
        }
      ],
      "stateMutability": "view",
      "type": "function",
      "constant": true
    },
    {
      "inputs": [],
      "name": "INVESTOR_ROLE",
      "outputs": [
        {
          "internalType": "bytes32",
          "name": "",
          "type": "bytes32"
        }
      ],
      "stateMutability": "view",
      "type": "function",
      "constant": true
    },
    {
      "inputs": [],
      "name": "OrganicChainAdmin",
      "outputs": [
        {
          "internalType": "address",
          "name": "",
          "type": "address"
        }
      ],
      "stateMutability": "view",
      "type": "function",
      "constant": true
    },
    {
      "inputs": [
        {
          "internalType": "address",
          "name": "",
          "type": "address"
        },
        {
          "internalType": "uint256",
          "name": "",
          "type": "uint256"
        }
      ],
      "name": "farms",
      "outputs": [
        {
          "internalType": "uint32",
          "name": "areaCovered",
          "type": "uint32"
        },
        {
          "internalType": "uint8",
          "name": "tokenpercent",
          "type": "uint8"
        },
        {
          "internalType": "string",
          "name": "cropName",
          "type": "string"
        }
      ],
      "stateMutability": "view",
      "type": "function",
      "constant": true
    },
    {
      "inputs": [
        {
          "internalType": "bytes32",
          "name": "role",
          "type": "bytes32"
        }
      ],
      "name": "getRoleAdmin",
      "outputs": [
        {
          "internalType": "bytes32",
          "name": "",
          "type": "bytes32"
        }
      ],
      "stateMutability": "view",
      "type": "function",
      "constant": true
    },
    {
      "inputs": [
        {
          "internalType": "bytes32",
          "name": "role",
          "type": "bytes32"
        },
        {
          "internalType": "address",
          "name": "account",
          "type": "address"
        }
      ],
      "name": "grantRole",
      "outputs": [],
      "stateMutability": "nonpayable",
      "type": "function"
    },
    {
      "inputs": [
        {
          "internalType": "bytes32",
          "name": "role",
          "type": "bytes32"
        },
        {
          "internalType": "address",
          "name": "account",
          "type": "address"
        }
      ],
      "name": "hasRole",
      "outputs": [
        {
          "internalType": "bool",
          "name": "",
          "type": "bool"
        }
      ],
      "stateMutability": "view",
      "type": "function",
      "constant": true
    },
    {
      "inputs": [
        {
          "internalType": "bytes32",
          "name": "role",
          "type": "bytes32"
        },
        {
          "internalType": "address",
          "name": "account",
          "type": "address"
        }
      ],
      "name": "renounceRole",
      "outputs": [],
      "stateMutability": "nonpayable",
      "type": "function"
    },
    {
      "inputs": [
        {
          "internalType": "bytes32",
          "name": "role",
          "type": "bytes32"
        },
        {
          "internalType": "address",
          "name": "account",
          "type": "address"
        }
      ],
      "name": "revokeRole",
      "outputs": [],
      "stateMutability": "nonpayable",
      "type": "function"
    },
    {
      "inputs": [
        {
          "internalType": "bytes4",
          "name": "interfaceId",
          "type": "bytes4"
        }
      ],
      "name": "supportsInterface",
      "outputs": [
        {
          "internalType": "bool",
          "name": "",
          "type": "bool"
        }
      ],
      "stateMutability": "view",
      "type": "function",
      "constant": true
    },
    {
      "inputs": [],
      "name": "token",
      "outputs": [
        {
          "internalType": "contract OCToken",
          "name": "",
          "type": "address"
        }
      ],
      "stateMutability": "view",
      "type": "function",
      "constant": true
    },
    {
      "inputs": [
        {
          "internalType": "address",
          "name": "",
          "type": "address"
        }
      ],
      "name": "users",
      "outputs": [
        {
          "internalType": "string",
          "name": "name",
          "type": "string"
        },
        {
          "internalType": "string",
          "name": "role",
          "type": "string"
        }
      ],
      "stateMutability": "view",
      "type": "function",
      "constant": true
    },
    {
      "inputs": [
        {
          "internalType": "address",
          "name": "_userAddress",
          "type": "address"
        }
      ],
      "name": "searchUser",
      "outputs": [
        {
          "internalType": "bool",
          "name": "",
          "type": "bool"
        },
        {
          "components": [
            {
              "internalType": "string",
              "name": "name",
              "type": "string"
            },
            {
              "internalType": "string",
              "name": "role",
              "type": "string"
            }
          ],
          "internalType": "struct OrganicChain.User",
          "name": "",
          "type": "tuple"
        }
      ],
      "stateMutability": "view",
      "type": "function",
      "constant": true
    },
    {
      "inputs": [
        {
          "internalType": "string",
          "name": "_name",
          "type": "string"
        },
        {
          "internalType": "address",
          "name": "_userAddress",
          "type": "address"
        },
        {
          "internalType": "string",
          "name": "_role",
          "type": "string"
        }
      ],
      "name": "createUser",
      "outputs": [],
      "stateMutability": "nonpayable",
      "type": "function"
    },
    {
      "inputs": [
        {
          "internalType": "address",
          "name": "_userAddress",
          "type": "address"
        },
        {
          "internalType": "uint32",
          "name": "_areaCovered",
          "type": "uint32"
        },
        {
          "internalType": "string",
          "name": "_cropName",
          "type": "string"
        },
        {
          "internalType": "uint8",
          "name": "_tokenpercent",
          "type": "uint8"
        }
      ],
      "name": "addFarm",
      "outputs": [],
      "stateMutability": "nonpayable",
      "type": "function"
    },
    {
      "inputs": [
        {
          "internalType": "address",
          "name": "_userAddress",
          "type": "address"
        }
      ],
      "name": "balance",
      "outputs": [
        {
          "internalType": "uint256",
          "name": "",
          "type": "uint256"
        }
      ],
      "stateMutability": "view",
      "type": "function",
      "constant": true
    },
    {
      "inputs": [
        {
          "internalType": "address",
          "name": "_userAddress",
          "type": "address"
        }
      ],
      "name": "getMyFarms",
      "outputs": [
        {
          "components": [
            {
              "internalType": "uint32",
              "name": "areaCovered",
              "type": "uint32"
            },
            {
              "internalType": "uint8",
              "name": "tokenpercent",
              "type": "uint8"
            },
            {
              "internalType": "string",
              "name": "cropName",
              "type": "string"
            }
          ],
          "internalType": "struct OrganicChain.Farm[]",
          "name": "",
          "type": "tuple[]"
        }
      ],
      "stateMutability": "view",
      "type": "function",
      "constant": true
    }
  ],
  "bytecode": "0x60806040523480156200001157600080fd5b5033600260006101000a81548173ffffffffffffffffffffffffffffffffffffffff021916908373ffffffffffffffffffffffffffffffffffffffff1602179055506040516200006190620000d0565b6200006c906200013f565b604051809103906000f08015801562000089573d6000803e3d6000fd5b50600160006101000a81548173ffffffffffffffffffffffffffffffffffffffff021916908373ffffffffffffffffffffffffffffffffffffffff16021790555062000176565b611d07806200293f83390190565b600082825260208201905092915050565b7f4f43540000000000000000000000000000000000000000000000000000000000600082015250565b600062000127600383620000de565b91506200013482620000ef565b602082019050919050565b600060408201905081810360008301526200015a8162000118565b905081810360208301526200016f8162000118565b9050919050565b6127b980620001866000396000f3fe608060405234801561001057600080fd5b50600436106101215760003560e01c806397f35e5c116100ad578063b17e896411610071578063b17e896414610346578063d547741f14610362578063e3d670d71461037e578063f3943970146103ae578063fc0c546a146103cc57610121565b806397f35e5c146102785780639bd7417f146102a85780639e40c53a146102d9578063a217fddf146102f7578063a87430ba1461031557610121565b80634bc02da6116100f45780634bc02da6146101be578063717c456c146101dc57806376082a5e146101f8578063909b30f11461021657806391d148541461024857610121565b806301ffc9a714610126578063248a9ca3146101565780632f2ff15d1461018657806336568abe146101a2575b600080fd5b610140600480360381019061013b91906118f7565b6103ea565b60405161014d919061193f565b60405180910390f35b610170600480360381019061016b9190611990565b610464565b60405161017d91906119cc565b60405180910390f35b6101a0600480360381019061019b9190611a45565b610483565b005b6101bc60048036038101906101b79190611a45565b6104ac565b005b6101c661052f565b6040516101d391906119cc565b60405180910390f35b6101f660048036038101906101f19190611c40565b610553565b005b610200610830565b60405161020d91906119cc565b60405180910390f35b610230600480360381019061022b9190611cf9565b610854565b60405161023f93929190611ddf565b60405180910390f35b610262600480360381019061025d9190611a45565b610940565b60405161026f919061193f565b60405180910390f35b610292600480360381019061028d9190611e1d565b6109aa565b60405161029f9190611fc4565b60405180910390f35b6102c260048036038101906102bd9190611e1d565b610b1d565b6040516102d092919061202a565b60405180910390f35b6102e1610d4b565b6040516102ee9190612069565b60405180910390f35b6102ff610d71565b60405161030c91906119cc565b60405180910390f35b61032f600480360381019061032a9190611e1d565b610d78565b60405161033d929190612084565b60405180910390f35b610360600480360381019061035b91906120bb565b610eac565b005b61037c60048036038101906103779190611a45565b611172565b005b61039860048036038101906103939190611e1d565b61119b565b6040516103a59190612155565b60405180910390f35b6103b6611240565b6040516103c391906119cc565b60405180910390f35b6103d4611264565b6040516103e191906121cf565b60405180910390f35b60007f7965db0b000000000000000000000000000000000000000000000000000000007bffffffffffffffffffffffffffffffffffffffffffffffffffffffff1916827bffffffffffffffffffffffffffffffffffffffffffffffffffffffff1916148061045d575061045c8261128a565b5b9050919050565b6000806000838152602001908152602001600020600101549050919050565b61048c82610464565b61049d816104986112f4565b6112fc565b6104a78383611399565b505050565b6104b46112f4565b73ffffffffffffffffffffffffffffffffffffffff168173ffffffffffffffffffffffffffffffffffffffff1614610521576040517f08c379a00000000000000000000000000000000000000000000000000000000081526004016105189061225c565b60405180910390fd5b61052b8282611479565b5050565b7fee129e6fb492ad85e7c4d99e24facc6412bb957226fd6e1ff5efa1d2c0569e9c81565b61055b6117a4565b83816000019063ffffffff16908163ffffffff168152505082816040018190525081816020019060ff16908160ff1681525050600560008673ffffffffffffffffffffffffffffffffffffffff1673ffffffffffffffffffffffffffffffffffffffff16815260200190815260200160002081908060018154018082558091505060019003906000526020600020906002020160009091909190915060008201518160000160006101000a81548163ffffffff021916908363ffffffff16021790555060208201518160000160046101000a81548160ff021916908360ff160217905550604082015181600101908051906020019061065b9291906117ce565b5050506000600a8561066d91906122ab565b9050600160009054906101000a900473ffffffffffffffffffffffffffffffffffffffff1673ffffffffffffffffffffffffffffffffffffffff16634564edb3600260009054906101000a900473ffffffffffffffffffffffffffffffffffffffff1660648660ff16856106e191906122ab565b6106eb9190612318565b6040518363ffffffff1660e01b8152600401610708929190612349565b600060405180830381600087803b15801561072257600080fd5b505af1158015610736573d6000803e3d6000fd5b50505050600160009054906101000a900473ffffffffffffffffffffffffffffffffffffffff1673ffffffffffffffffffffffffffffffffffffffff16634564edb38760648660646107889190612372565b60ff168561079691906122ab565b6107a09190612318565b6040518363ffffffff1660e01b81526004016107bd929190612349565b600060405180830381600087803b1580156107d757600080fd5b505af11580156107eb573d6000803e3d6000fd5b505050507fff15f687ac27919cbd1246e1eab828f36b7d42a17c416389b8bd11e632ee841f8686604051610820929190612349565b60405180910390a1505050505050565b7f5614e11ca6d7673c9c8dcec913465d676494aad1151bb2c1cf40b9d99be4d93581565b6005602052816000526040600020818154811061087057600080fd5b9060005260206000209060020201600091509150508060000160009054906101000a900463ffffffff16908060000160049054906101000a900460ff16908060010180546108bd906123d5565b80601f01602080910402602001604051908101604052809291908181526020018280546108e9906123d5565b80156109365780601f1061090b57610100808354040283529160200191610936565b820191906000526020600020905b81548152906001019060200180831161091957829003601f168201915b5050505050905083565b600080600084815260200190815260200160002060000160008373ffffffffffffffffffffffffffffffffffffffff1673ffffffffffffffffffffffffffffffffffffffff16815260200190815260200160002060009054906101000a900460ff16905092915050565b6060600560008373ffffffffffffffffffffffffffffffffffffffff1673ffffffffffffffffffffffffffffffffffffffff168152602001908152602001600020805480602002602001604051908101604052809291908181526020016000905b82821015610b1257838290600052602060002090600202016040518060600160405290816000820160009054906101000a900463ffffffff1663ffffffff1663ffffffff1681526020016000820160049054906101000a900460ff1660ff1660ff168152602001600182018054610a81906123d5565b80601f0160208091040260200160405190810160405280929190818152602001828054610aad906123d5565b8015610afa5780601f10610acf57610100808354040283529160200191610afa565b820191906000526020600020905b815481529060010190602001808311610add57829003601f168201915b50505050508152505081526020019060010190610a0b565b505050509050919050565b6000610b27611854565b6000805b6003805490508161ffff161015610bce578473ffffffffffffffffffffffffffffffffffffffff1660038261ffff1681548110610b6b57610b6a612407565b5b9060005260206000200160009054906101000a900473ffffffffffffffffffffffffffffffffffffffff1673ffffffffffffffffffffffffffffffffffffffff161415610bbb5760019150610bce565b8080610bc690612444565b915050610b2b565b5080600460008673ffffffffffffffffffffffffffffffffffffffff1673ffffffffffffffffffffffffffffffffffffffff16815260200190815260200160002080604051806040016040529081600082018054610c2b906123d5565b80601f0160208091040260200160405190810160405280929190818152602001828054610c57906123d5565b8015610ca45780601f10610c7957610100808354040283529160200191610ca4565b820191906000526020600020905b815481529060010190602001808311610c8757829003601f168201915b50505050508152602001600182018054610cbd906123d5565b80601f0160208091040260200160405190810160405280929190818152602001828054610ce9906123d5565b8015610d365780601f10610d0b57610100808354040283529160200191610d36565b820191906000526020600020905b815481529060010190602001808311610d1957829003601f168201915b50505050508152505090509250925050915091565b600260009054906101000a900473ffffffffffffffffffffffffffffffffffffffff1681565b6000801b81565b6004602052806000526040600020600091509050806000018054610d9b906123d5565b80601f0160208091040260200160405190810160405280929190818152602001828054610dc7906123d5565b8015610e145780601f10610de957610100808354040283529160200191610e14565b820191906000526020600020905b815481529060010190602001808311610df757829003601f168201915b505050505090806001018054610e29906123d5565b80601f0160208091040260200160405190810160405280929190818152602001828054610e55906123d5565b8015610ea25780601f10610e7757610100808354040283529160200191610ea2565b820191906000526020600020905b815481529060010190602001808311610e8557829003601f168201915b5050505050905082565b6003829080600181540180825580915050600190039060005260206000200160009091909190916101000a81548173ffffffffffffffffffffffffffffffffffffffff021916908373ffffffffffffffffffffffffffffffffffffffff16021790555082600460008473ffffffffffffffffffffffffffffffffffffffff1673ffffffffffffffffffffffffffffffffffffffff1681526020019081526020016000206000019080519060200190610f659291906117ce565b5080600460008473ffffffffffffffffffffffffffffffffffffffff1673ffffffffffffffffffffffffffffffffffffffff1681526020019081526020016000206001019080519060200190610fbc9291906117ce565b507ff309ffc42715a0bfccdfa0c4cac305505f15ab9b9262b7451ceea96c0cc3518781604051602001610fef91906124ab565b60405160208183030381529060405280519060200120141561103a576110357ff309ffc42715a0bfccdfa0c4cac305505f15ab9b9262b7451ceea96c0cc351878361155a565b611132565b7f5614e11ca6d7673c9c8dcec913465d676494aad1151bb2c1cf40b9d99be4d9358160405160200161106c91906124ab565b6040516020818303038152906040528051906020012014156110b7576110b27f5614e11ca6d7673c9c8dcec913465d676494aad1151bb2c1cf40b9d99be4d9358361155a565b611131565b7fee129e6fb492ad85e7c4d99e24facc6412bb957226fd6e1ff5efa1d2c0569e9c816040516020016110e991906124ab565b6040516020818303038152906040528051906020012014156111305761112f7fee129e6fb492ad85e7c4d99e24facc6412bb957226fd6e1ff5efa1d2c0569e9c8361155a565b5b5b5b7fef068de4fdcddb11dcf26da9d4527c834ab065cbdefe220fc5c42e400f301a97828483604051611165939291906124c2565b60405180910390a1505050565b61117b82610464565b61118c816111876112f4565b6112fc565b6111968383611479565b505050565b6000600160009054906101000a900473ffffffffffffffffffffffffffffffffffffffff1673ffffffffffffffffffffffffffffffffffffffff166370a08231836040518263ffffffff1660e01b81526004016111f89190612069565b602060405180830381865afa158015611215573d6000803e3d6000fd5b505050506040513d601f19601f82011682018060405250810190611239919061251c565b9050919050565b7ff309ffc42715a0bfccdfa0c4cac305505f15ab9b9262b7451ceea96c0cc3518781565b600160009054906101000a900473ffffffffffffffffffffffffffffffffffffffff1681565b60007f01ffc9a7000000000000000000000000000000000000000000000000000000007bffffffffffffffffffffffffffffffffffffffffffffffffffffffff1916827bffffffffffffffffffffffffffffffffffffffffffffffffffffffff1916149050919050565b600033905090565b6113068282610940565b6113955761132b8173ffffffffffffffffffffffffffffffffffffffff166014611568565b6113398360001c6020611568565b60405160200161134a9291906125e1565b6040516020818303038152906040526040517f08c379a000000000000000000000000000000000000000000000000000000000815260040161138c919061261b565b60405180910390fd5b5050565b6113a38282610940565b61147557600160008084815260200190815260200160002060000160008373ffffffffffffffffffffffffffffffffffffffff1673ffffffffffffffffffffffffffffffffffffffff16815260200190815260200160002060006101000a81548160ff02191690831515021790555061141a6112f4565b73ffffffffffffffffffffffffffffffffffffffff168173ffffffffffffffffffffffffffffffffffffffff16837f2f8788117e7eff1d82e926ec794901d17c78024a50270940304540a733656f0d60405160405180910390a45b5050565b6114838282610940565b1561155657600080600084815260200190815260200160002060000160008373ffffffffffffffffffffffffffffffffffffffff1673ffffffffffffffffffffffffffffffffffffffff16815260200190815260200160002060006101000a81548160ff0219169083151502179055506114fb6112f4565b73ffffffffffffffffffffffffffffffffffffffff168173ffffffffffffffffffffffffffffffffffffffff16837ff6391f5c32d9c69d2a47ea670b442974b53935d1edc7fd64eb21e047a839171b60405160405180910390a45b5050565b6115648282611399565b5050565b60606000600283600261157b919061263d565b6115859190612697565b67ffffffffffffffff81111561159e5761159d611adc565b5b6040519080825280601f01601f1916602001820160405280156115d05781602001600182028036833780820191505090505b5090507f30000000000000000000000000000000000000000000000000000000000000008160008151811061160857611607612407565b5b60200101907effffffffffffffffffffffffffffffffffffffffffffffffffffffffffffff1916908160001a9053507f78000000000000000000000000000000000000000000000000000000000000008160018151811061166c5761166b612407565b5b60200101907effffffffffffffffffffffffffffffffffffffffffffffffffffffffffffff1916908160001a905350600060018460026116ac919061263d565b6116b69190612697565b90505b6001811115611756577f3031323334353637383961626364656600000000000000000000000000000000600f8616601081106116f8576116f7612407565b5b1a60f81b82828151811061170f5761170e612407565b5b60200101907effffffffffffffffffffffffffffffffffffffffffffffffffffffffffffff1916908160001a905350600485901c94508061174f906126ed565b90506116b9565b506000841461179a576040517f08c379a000000000000000000000000000000000000000000000000000000000815260040161179190612763565b60405180910390fd5b8091505092915050565b6040518060600160405280600063ffffffff168152602001600060ff168152602001606081525090565b8280546117da906123d5565b90600052602060002090601f0160209004810192826117fc5760008555611843565b82601f1061181557805160ff1916838001178555611843565b82800160010185558215611843579182015b82811115611842578251825591602001919060010190611827565b5b509050611850919061186e565b5090565b604051806040016040528060608152602001606081525090565b5b8082111561188757600081600090555060010161186f565b5090565b6000604051905090565b600080fd5b600080fd5b60007fffffffff0000000000000000000000000000000000000000000000000000000082169050919050565b6118d48161189f565b81146118df57600080fd5b50565b6000813590506118f1816118cb565b92915050565b60006020828403121561190d5761190c611895565b5b600061191b848285016118e2565b91505092915050565b60008115159050919050565b61193981611924565b82525050565b60006020820190506119546000830184611930565b92915050565b6000819050919050565b61196d8161195a565b811461197857600080fd5b50565b60008135905061198a81611964565b92915050565b6000602082840312156119a6576119a5611895565b5b60006119b48482850161197b565b91505092915050565b6119c68161195a565b82525050565b60006020820190506119e160008301846119bd565b92915050565b600073ffffffffffffffffffffffffffffffffffffffff82169050919050565b6000611a12826119e7565b9050919050565b611a2281611a07565b8114611a2d57600080fd5b50565b600081359050611a3f81611a19565b92915050565b60008060408385031215611a5c57611a5b611895565b5b6000611a6a8582860161197b565b9250506020611a7b85828601611a30565b9150509250929050565b600063ffffffff82169050919050565b611a9e81611a85565b8114611aa957600080fd5b50565b600081359050611abb81611a95565b92915050565b600080fd5b600080fd5b6000601f19601f8301169050919050565b7f4e487b7100000000000000000000000000000000000000000000000000000000600052604160045260246000fd5b611b1482611acb565b810181811067ffffffffffffffff82111715611b3357611b32611adc565b5b80604052505050565b6000611b4661188b565b9050611b528282611b0b565b919050565b600067ffffffffffffffff821115611b7257611b71611adc565b5b611b7b82611acb565b9050602081019050919050565b82818337600083830152505050565b6000611baa611ba584611b57565b611b3c565b905082815260208101848484011115611bc657611bc5611ac6565b5b611bd1848285611b88565b509392505050565b600082601f830112611bee57611bed611ac1565b5b8135611bfe848260208601611b97565b91505092915050565b600060ff82169050919050565b611c1d81611c07565b8114611c2857600080fd5b50565b600081359050611c3a81611c14565b92915050565b60008060008060808587031215611c5a57611c59611895565b5b6000611c6887828801611a30565b9450506020611c7987828801611aac565b935050604085013567ffffffffffffffff811115611c9a57611c9961189a565b5b611ca687828801611bd9565b9250506060611cb787828801611c2b565b91505092959194509250565b6000819050919050565b611cd681611cc3565b8114611ce157600080fd5b50565b600081359050611cf381611ccd565b92915050565b60008060408385031215611d1057611d0f611895565b5b6000611d1e85828601611a30565b9250506020611d2f85828601611ce4565b9150509250929050565b611d4281611a85565b82525050565b611d5181611c07565b82525050565b600081519050919050565b600082825260208201905092915050565b60005b83811015611d91578082015181840152602081019050611d76565b83811115611da0576000848401525b50505050565b6000611db182611d57565b611dbb8185611d62565b9350611dcb818560208601611d73565b611dd481611acb565b840191505092915050565b6000606082019050611df46000830186611d39565b611e016020830185611d48565b8181036040830152611e138184611da6565b9050949350505050565b600060208284031215611e3357611e32611895565b5b6000611e4184828501611a30565b91505092915050565b600081519050919050565b600082825260208201905092915050565b6000819050602082019050919050565b611e7f81611a85565b82525050565b611e8e81611c07565b82525050565b600082825260208201905092915050565b6000611eb082611d57565b611eba8185611e94565b9350611eca818560208601611d73565b611ed381611acb565b840191505092915050565b6000606083016000830151611ef66000860182611e76565b506020830151611f096020860182611e85565b5060408301518482036040860152611f218282611ea5565b9150508091505092915050565b6000611f3a8383611ede565b905092915050565b6000602082019050919050565b6000611f5a82611e4a565b611f648185611e55565b935083602082028501611f7685611e66565b8060005b85811015611fb25784840389528151611f938582611f2e565b9450611f9e83611f42565b925060208a01995050600181019050611f7a565b50829750879550505050505092915050565b60006020820190508181036000830152611fde8184611f4f565b905092915050565b600060408301600083015184820360008601526120038282611ea5565b9150506020830151848203602086015261201d8282611ea5565b9150508091505092915050565b600060408201905061203f6000830185611930565b81810360208301526120518184611fe6565b90509392505050565b61206381611a07565b82525050565b600060208201905061207e600083018461205a565b92915050565b6000604082019050818103600083015261209e8185611da6565b905081810360208301526120b28184611da6565b90509392505050565b6000806000606084860312156120d4576120d3611895565b5b600084013567ffffffffffffffff8111156120f2576120f161189a565b5b6120fe86828701611bd9565b935050602061210f86828701611a30565b925050604084013567ffffffffffffffff8111156121305761212f61189a565b5b61213c86828701611bd9565b9150509250925092565b61214f81611cc3565b82525050565b600060208201905061216a6000830184612146565b92915050565b6000819050919050565b600061219561219061218b846119e7565b612170565b6119e7565b9050919050565b60006121a78261217a565b9050919050565b60006121b98261219c565b9050919050565b6121c9816121ae565b82525050565b60006020820190506121e460008301846121c0565b92915050565b7f416363657373436f6e74726f6c3a2063616e206f6e6c792072656e6f756e636560008201527f20726f6c657320666f722073656c660000000000000000000000000000000000602082015250565b6000612246602f83611d62565b9150612251826121ea565b604082019050919050565b6000602082019050818103600083015261227581612239565b9050919050565b7f4e487b7100000000000000000000000000000000000000000000000000000000600052601160045260246000fd5b60006122b682611a85565b91506122c183611a85565b92508163ffffffff04831182151516156122de576122dd61227c565b5b828202905092915050565b7f4e487b7100000000000000000000000000000000000000000000000000000000600052601260045260246000fd5b600061232382611a85565b915061232e83611a85565b92508261233e5761233d6122e9565b5b828204905092915050565b600060408201905061235e600083018561205a565b61236b6020830184611d39565b9392505050565b600061237d82611c07565b915061238883611c07565b92508282101561239b5761239a61227c565b5b828203905092915050565b7f4e487b7100000000000000000000000000000000000000000000000000000000600052602260045260246000fd5b600060028204905060018216806123ed57607f821691505b60208210811415612401576124006123a6565b5b50919050565b7f4e487b7100000000000000000000000000000000000000000000000000000000600052603260045260246000fd5b600061ffff82169050919050565b600061244f82612436565b915061ffff8214156124645761246361227c565b5b600182019050919050565b600081905092915050565b600061248582611d57565b61248f818561246f565b935061249f818560208601611d73565b80840191505092915050565b60006124b7828461247a565b915081905092915050565b60006060820190506124d7600083018661205a565b81810360208301526124e98185611da6565b905081810360408301526124fd8184611da6565b9050949350505050565b60008151905061251681611ccd565b92915050565b60006020828403121561253257612531611895565b5b600061254084828501612507565b91505092915050565b7f416363657373436f6e74726f6c3a206163636f756e7420000000000000000000600082015250565b600061257f60178361246f565b915061258a82612549565b601782019050919050565b7f206973206d697373696e6720726f6c6520000000000000000000000000000000600082015250565b60006125cb60118361246f565b91506125d682612595565b601182019050919050565b60006125ec82612572565b91506125f8828561247a565b9150612603826125be565b915061260f828461247a565b91508190509392505050565b600060208201905081810360008301526126358184611da6565b905092915050565b600061264882611cc3565b915061265383611cc3565b9250817fffffffffffffffffffffffffffffffffffffffffffffffffffffffffffffffff048311821515161561268c5761268b61227c565b5b828202905092915050565b60006126a282611cc3565b91506126ad83611cc3565b9250827fffffffffffffffffffffffffffffffffffffffffffffffffffffffffffffffff038211156126e2576126e161227c565b5b828201905092915050565b60006126f882611cc3565b9150600082141561270c5761270b61227c565b5b600182039050919050565b7f537472696e67733a20686578206c656e67746820696e73756666696369656e74600082015250565b600061274d602083611d62565b915061275882612717565b602082019050919050565b6000602082019050818103600083015261277c81612740565b905091905056fea264697066735822122099751ecf30dd9b04b0042f02f02f587d824074c4a9d242f2e5d63ea11b6ee81764736f6c634300080a003360806040523480156200001157600080fd5b5060405162001d0738038062001d078339818101604052810190620000379190620002c2565b818181600390805190602001906200005192919062000075565b5080600490805190602001906200006a92919062000075565b5050505050620003ac565b828054620000839062000376565b90600052602060002090601f016020900481019282620000a75760008555620000f3565b82601f10620000c257805160ff1916838001178555620000f3565b82800160010185558215620000f3579182015b82811115620000f2578251825591602001919060010190620000d5565b5b50905062000102919062000106565b5090565b5b808211156200012157600081600090555060010162000107565b5090565b6000604051905090565b600080fd5b600080fd5b600080fd5b600080fd5b6000601f19601f8301169050919050565b7f4e487b7100000000000000000000000000000000000000000000000000000000600052604160045260246000fd5b6200018e8262000143565b810181811067ffffffffffffffff82111715620001b057620001af62000154565b5b80604052505050565b6000620001c562000125565b9050620001d3828262000183565b919050565b600067ffffffffffffffff821115620001f657620001f562000154565b5b620002018262000143565b9050602081019050919050565b60005b838110156200022e57808201518184015260208101905062000211565b838111156200023e576000848401525b50505050565b60006200025b6200025584620001d8565b620001b9565b9050828152602081018484840111156200027a57620002796200013e565b5b620002878482856200020e565b509392505050565b600082601f830112620002a757620002a662000139565b5b8151620002b984826020860162000244565b91505092915050565b60008060408385031215620002dc57620002db6200012f565b5b600083015167ffffffffffffffff811115620002fd57620002fc62000134565b5b6200030b858286016200028f565b925050602083015167ffffffffffffffff8111156200032f576200032e62000134565b5b6200033d858286016200028f565b9150509250929050565b7f4e487b7100000000000000000000000000000000000000000000000000000000600052602260045260246000fd5b600060028204905060018216806200038f57607f821691505b60208210811415620003a657620003a562000347565b5b50919050565b61194b80620003bc6000396000f3fe608060405234801561001057600080fd5b50600436106100cf5760003560e01c80633b6150091161008c57806395d89b411161006657806395d89b4114610226578063a457c2d714610244578063a9059cbb14610274578063dd62ed3e146102a4576100cf565b80633b615009146101be5780634564edb3146101da57806370a08231146101f6576100cf565b806306fdde03146100d4578063095ea7b3146100f257806318160ddd1461012257806323b872dd14610140578063313ce56714610170578063395093511461018e575b600080fd5b6100dc6102d4565b6040516100e99190610fc5565b60405180910390f35b61010c60048036038101906101079190611080565b610366565b60405161011991906110db565b60405180910390f35b61012a610389565b6040516101379190611105565b60405180910390f35b61015a60048036038101906101559190611120565b610393565b60405161016791906110db565b60405180910390f35b6101786103c2565b604051610185919061118f565b60405180910390f35b6101a860048036038101906101a39190611080565b6103cb565b6040516101b591906110db565b60405180910390f35b6101d860048036038101906101d391906111e6565b610475565b005b6101f460048036038101906101ef91906111e6565b610489565b005b610210600480360381019061020b9190611226565b61049d565b60405161021d9190611105565b60405180910390f35b61022e6104e5565b60405161023b9190610fc5565b60405180910390f35b61025e60048036038101906102599190611080565b610577565b60405161026b91906110db565b60405180910390f35b61028e60048036038101906102899190611080565b610661565b60405161029b91906110db565b60405180910390f35b6102be60048036038101906102b99190611253565b610684565b6040516102cb9190611105565b60405180910390f35b6060600380546102e3906112c2565b80601f016020809104026020016040519081016040528092919081815260200182805461030f906112c2565b801561035c5780601f106103315761010080835404028352916020019161035c565b820191906000526020600020905b81548152906001019060200180831161033f57829003601f168201915b5050505050905090565b60008061037161070b565b905061037e818585610713565b600191505092915050565b6000600254905090565b60008061039e61070b565b90506103ab8582856108de565b6103b685858561096a565b60019150509392505050565b60006012905090565b6000806103d661070b565b905061046a818585600160008673ffffffffffffffffffffffffffffffffffffffff1673ffffffffffffffffffffffffffffffffffffffff16815260200190815260200160002060008973ffffffffffffffffffffffffffffffffffffffff1673ffffffffffffffffffffffffffffffffffffffff168152602001908152602001600020546104659190611323565b610713565b600191505092915050565b610485828263ffffffff16610beb565b5050565b610499828263ffffffff16610dc2565b5050565b60008060008373ffffffffffffffffffffffffffffffffffffffff1673ffffffffffffffffffffffffffffffffffffffff168152602001908152602001600020549050919050565b6060600480546104f4906112c2565b80601f0160208091040260200160405190810160405280929190818152602001828054610520906112c2565b801561056d5780601f106105425761010080835404028352916020019161056d565b820191906000526020600020905b81548152906001019060200180831161055057829003601f168201915b5050505050905090565b60008061058261070b565b90506000600160008373ffffffffffffffffffffffffffffffffffffffff1673ffffffffffffffffffffffffffffffffffffffff16815260200190815260200160002060008673ffffffffffffffffffffffffffffffffffffffff1673ffffffffffffffffffffffffffffffffffffffff16815260200190815260200160002054905083811015610648576040517f08c379a000000000000000000000000000000000000000000000000000000000815260040161063f906113eb565b60405180910390fd5b6106558286868403610713565b60019250505092915050565b60008061066c61070b565b905061067981858561096a565b600191505092915050565b6000600160008473ffffffffffffffffffffffffffffffffffffffff1673ffffffffffffffffffffffffffffffffffffffff16815260200190815260200160002060008373ffffffffffffffffffffffffffffffffffffffff1673ffffffffffffffffffffffffffffffffffffffff16815260200190815260200160002054905092915050565b600033905090565b600073ffffffffffffffffffffffffffffffffffffffff168373ffffffffffffffffffffffffffffffffffffffff161415610783576040517f08c379a000000000000000000000000000000000000000000000000000000000815260040161077a9061147d565b60405180910390fd5b600073ffffffffffffffffffffffffffffffffffffffff168273ffffffffffffffffffffffffffffffffffffffff1614156107f3576040517f08c379a00000000000000000000000000000000000000000000000000000000081526004016107ea9061150f565b60405180910390fd5b80600160008573ffffffffffffffffffffffffffffffffffffffff1673ffffffffffffffffffffffffffffffffffffffff16815260200190815260200160002060008473ffffffffffffffffffffffffffffffffffffffff1673ffffffffffffffffffffffffffffffffffffffff168152602001908152602001600020819055508173ffffffffffffffffffffffffffffffffffffffff168373ffffffffffffffffffffffffffffffffffffffff167f8c5be1e5ebec7d5bd14f71427d1e84f3dd0314c0f7b2291e5b200ac8c7c3b925836040516108d19190611105565b60405180910390a3505050565b60006108ea8484610684565b90507fffffffffffffffffffffffffffffffffffffffffffffffffffffffffffffffff81146109645781811015610956576040517f08c379a000000000000000000000000000000000000000000000000000000000815260040161094d9061157b565b60405180910390fd5b6109638484848403610713565b5b50505050565b600073ffffffffffffffffffffffffffffffffffffffff168373ffffffffffffffffffffffffffffffffffffffff1614156109da576040517f08c379a00000000000000000000000000000000000000000000000000000000081526004016109d19061160d565b60405180910390fd5b600073ffffffffffffffffffffffffffffffffffffffff168273ffffffffffffffffffffffffffffffffffffffff161415610a4a576040517f08c379a0000000000000000000000000000000000000000000000000000000008152600401610a419061169f565b60405180910390fd5b610a55838383610f22565b60008060008573ffffffffffffffffffffffffffffffffffffffff1673ffffffffffffffffffffffffffffffffffffffff16815260200190815260200160002054905081811015610adb576040517f08c379a0000000000000000000000000000000000000000000000000000000008152600401610ad290611731565b60405180910390fd5b8181036000808673ffffffffffffffffffffffffffffffffffffffff1673ffffffffffffffffffffffffffffffffffffffff16815260200190815260200160002081905550816000808573ffffffffffffffffffffffffffffffffffffffff1673ffffffffffffffffffffffffffffffffffffffff1681526020019081526020016000206000828254610b6e9190611323565b925050819055508273ffffffffffffffffffffffffffffffffffffffff168473ffffffffffffffffffffffffffffffffffffffff167fddf252ad1be2c89b69c2b068fc378daa952ba7f163c4a11628f55a4df523b3ef84604051610bd29190611105565b60405180910390a3610be5848484610f27565b50505050565b600073ffffffffffffffffffffffffffffffffffffffff168273ffffffffffffffffffffffffffffffffffffffff161415610c5b576040517f08c379a0000000000000000000000000000000000000000000000000000000008152600401610c52906117c3565b60405180910390fd5b610c6782600083610f22565b60008060008473ffffffffffffffffffffffffffffffffffffffff1673ffffffffffffffffffffffffffffffffffffffff16815260200190815260200160002054905081811015610ced576040517f08c379a0000000000000000000000000000000000000000000000000000000008152600401610ce490611855565b60405180910390fd5b8181036000808573ffffffffffffffffffffffffffffffffffffffff1673ffffffffffffffffffffffffffffffffffffffff168152602001908152602001600020819055508160026000828254610d449190611875565b92505081905550600073ffffffffffffffffffffffffffffffffffffffff168373ffffffffffffffffffffffffffffffffffffffff167fddf252ad1be2c89b69c2b068fc378daa952ba7f163c4a11628f55a4df523b3ef84604051610da99190611105565b60405180910390a3610dbd83600084610f27565b505050565b600073ffffffffffffffffffffffffffffffffffffffff168273ffffffffffffffffffffffffffffffffffffffff161415610e32576040517f08c379a0000000000000000000000000000000000000000000000000000000008152600401610e29906118f5565b60405180910390fd5b610e3e60008383610f22565b8060026000828254610e509190611323565b92505081905550806000808473ffffffffffffffffffffffffffffffffffffffff1673ffffffffffffffffffffffffffffffffffffffff1681526020019081526020016000206000828254610ea59190611323565b925050819055508173ffffffffffffffffffffffffffffffffffffffff16600073ffffffffffffffffffffffffffffffffffffffff167fddf252ad1be2c89b69c2b068fc378daa952ba7f163c4a11628f55a4df523b3ef83604051610f0a9190611105565b60405180910390a3610f1e60008383610f27565b5050565b505050565b505050565b600081519050919050565b600082825260208201905092915050565b60005b83811015610f66578082015181840152602081019050610f4b565b83811115610f75576000848401525b50505050565b6000601f19601f8301169050919050565b6000610f9782610f2c565b610fa18185610f37565b9350610fb1818560208601610f48565b610fba81610f7b565b840191505092915050565b60006020820190508181036000830152610fdf8184610f8c565b905092915050565b600080fd5b600073ffffffffffffffffffffffffffffffffffffffff82169050919050565b600061101782610fec565b9050919050565b6110278161100c565b811461103257600080fd5b50565b6000813590506110448161101e565b92915050565b6000819050919050565b61105d8161104a565b811461106857600080fd5b50565b60008135905061107a81611054565b92915050565b6000806040838503121561109757611096610fe7565b5b60006110a585828601611035565b92505060206110b68582860161106b565b9150509250929050565b60008115159050919050565b6110d5816110c0565b82525050565b60006020820190506110f060008301846110cc565b92915050565b6110ff8161104a565b82525050565b600060208201905061111a60008301846110f6565b92915050565b60008060006060848603121561113957611138610fe7565b5b600061114786828701611035565b935050602061115886828701611035565b92505060406111698682870161106b565b9150509250925092565b600060ff82169050919050565b61118981611173565b82525050565b60006020820190506111a46000830184611180565b92915050565b600063ffffffff82169050919050565b6111c3816111aa565b81146111ce57600080fd5b50565b6000813590506111e0816111ba565b92915050565b600080604083850312156111fd576111fc610fe7565b5b600061120b85828601611035565b925050602061121c858286016111d1565b9150509250929050565b60006020828403121561123c5761123b610fe7565b5b600061124a84828501611035565b91505092915050565b6000806040838503121561126a57611269610fe7565b5b600061127885828601611035565b925050602061128985828601611035565b9150509250929050565b7f4e487b7100000000000000000000000000000000000000000000000000000000600052602260045260246000fd5b600060028204905060018216806112da57607f821691505b602082108114156112ee576112ed611293565b5b50919050565b7f4e487b7100000000000000000000000000000000000000000000000000000000600052601160045260246000fd5b600061132e8261104a565b91506113398361104a565b9250827fffffffffffffffffffffffffffffffffffffffffffffffffffffffffffffffff0382111561136e5761136d6112f4565b5b828201905092915050565b7f45524332303a2064656372656173656420616c6c6f77616e63652062656c6f7760008201527f207a65726f000000000000000000000000000000000000000000000000000000602082015250565b60006113d5602583610f37565b91506113e082611379565b604082019050919050565b60006020820190508181036000830152611404816113c8565b9050919050565b7f45524332303a20617070726f76652066726f6d20746865207a65726f2061646460008201527f7265737300000000000000000000000000000000000000000000000000000000602082015250565b6000611467602483610f37565b91506114728261140b565b604082019050919050565b600060208201905081810360008301526114968161145a565b9050919050565b7f45524332303a20617070726f766520746f20746865207a65726f20616464726560008201527f7373000000000000000000000000000000000000000000000000000000000000602082015250565b60006114f9602283610f37565b91506115048261149d565b604082019050919050565b60006020820190508181036000830152611528816114ec565b9050919050565b7f45524332303a20696e73756666696369656e7420616c6c6f77616e6365000000600082015250565b6000611565601d83610f37565b91506115708261152f565b602082019050919050565b6000602082019050818103600083015261159481611558565b9050919050565b7f45524332303a207472616e736665722066726f6d20746865207a65726f20616460008201527f6472657373000000000000000000000000000000000000000000000000000000602082015250565b60006115f7602583610f37565b91506116028261159b565b604082019050919050565b60006020820190508181036000830152611626816115ea565b9050919050565b7f45524332303a207472616e7366657220746f20746865207a65726f206164647260008201527f6573730000000000000000000000000000000000000000000000000000000000602082015250565b6000611689602383610f37565b91506116948261162d565b604082019050919050565b600060208201905081810360008301526116b88161167c565b9050919050565b7f45524332303a207472616e7366657220616d6f756e742065786365656473206260008201527f616c616e63650000000000000000000000000000000000000000000000000000602082015250565b600061171b602683610f37565b9150611726826116bf565b604082019050919050565b6000602082019050818103600083015261174a8161170e565b9050919050565b7f45524332303a206275726e2066726f6d20746865207a65726f2061646472657360008201527f7300000000000000000000000000000000000000000000000000000000000000602082015250565b60006117ad602183610f37565b91506117b882611751565b604082019050919050565b600060208201905081810360008301526117dc816117a0565b9050919050565b7f45524332303a206275726e20616d6f756e7420657863656564732062616c616e60008201527f6365000000000000000000000000000000000000000000000000000000000000602082015250565b600061183f602283610f37565b915061184a826117e3565b604082019050919050565b6000602082019050818103600083015261186e81611832565b9050919050565b60006118808261104a565b915061188b8361104a565b92508282101561189e5761189d6112f4565b5b828203905092915050565b7f45524332303a206d696e7420746f20746865207a65726f206164647265737300600082015250565b60006118df601f83610f37565b91506118ea826118a9565b602082019050919050565b6000602082019050818103600083015261190e816118d2565b905091905056fea26469706673582212204d6afe20de2ab3786e444513a149daa420ca683fd3cb39173cc566295a5d881164736f6c634300080a0033",
  "immutableReferences": {},
  "source": "//SPDX-License-Identifier: Unlicense\r\npragma solidity ^0.8.10;\r\n\r\nimport \"@openzeppelin/contracts/access/AccessControl.sol\";\r\nimport \"./OCToken.sol\";\r\n\r\ncontract OrganicChain is AccessControl {\r\n\r\n    bytes32 public constant FARMER_ROLE = keccak256(\"FARMER\");\r\n    bytes32 public constant INVESTOR_ROLE = keccak256(\"INVESTOR\");\r\n    bytes32 public constant CONSUMER_ROLE = keccak256(\"CONSUMER\");\r\n\r\n    OCToken public token;\r\n    address public OrganicChainAdmin;\r\n    struct User {\r\n        string  name;\r\n        string  role;\r\n    }\r\n\r\n    struct Farm {\r\n        uint32 areaCovered;\r\n        uint8 tokenpercent;\r\n        string cropName;\r\n    }\r\n\r\n    address [] userList;\r\n    mapping (address => User) public users;\r\n    mapping (address => Farm[]) public farms;\r\n\r\n    // Events\r\n    event userCreated(address _useraddr, string _name, string _role);\r\n    event farmAdded(address _useraddr, uint32 _areacovered);\r\n\r\n    constructor(){\r\n        OrganicChainAdmin = msg.sender;\r\n        token = new OCToken(\"OCT\", \"OCT\");\r\n    }\r\n    function searchUser( address _userAddress) public view returns ( bool, User memory){\r\n        bool found = false;\r\n        for(uint16 i=0; i < userList.length; i++){\r\n            if(userList[i] == _userAddress)\r\n            {\r\n                found = true;\r\n                break;\r\n            }\r\n        }\r\n        return (found,users[_userAddress]);\r\n    }\r\n\r\n    function createUser( \r\n        string memory  _name,\r\n        address _userAddress,\r\n        string memory  _role)\r\n        public {\r\n\r\n            userList.push(_userAddress);\r\n            users[_userAddress].name = _name;\r\n            users[_userAddress].role = _role;\r\n            if(keccak256(abi.encodePacked(_role)) == FARMER_ROLE)\r\n                _setupRole(FARMER_ROLE, _userAddress);\r\n            else if(keccak256(abi.encodePacked(_role)) == INVESTOR_ROLE)\r\n                _setupRole(INVESTOR_ROLE, _userAddress);\r\n            else if(keccak256(abi.encodePacked(_role)) == CONSUMER_ROLE)\r\n                _setupRole(CONSUMER_ROLE, _userAddress);\r\n\r\n            emit userCreated(_userAddress, _name,_role);\r\n    }\r\n\r\n    function addFarm(\r\n        address _userAddress,\r\n        uint32 _areaCovered,\r\n        string memory _cropName,\r\n        uint8 _tokenpercent) \r\n        public\r\n        {\r\n            Farm memory farm;\r\n            farm.areaCovered = _areaCovered;\r\n            farm.cropName = _cropName;\r\n            farm.tokenpercent = _tokenpercent;\r\n            farms[_userAddress].push(farm);\r\n            uint32 farmToken = _areaCovered * 10;\r\n\r\n            token.createTokens(OrganicChainAdmin, farmToken * _tokenpercent/100);\r\n            token.createTokens(_userAddress, farmToken * (100 - _tokenpercent)/100);\r\n            emit farmAdded(_userAddress, _areaCovered);\r\n    }\r\n    function balance(address _userAddress) view public returns (uint256 ){\r\n            return  token.balanceOf(_userAddress);\r\n    }\r\n    function getMyFarms(address _userAddress) view public returns (Farm [] memory ){\r\n            return farms[_userAddress];\r\n    }\r\n\r\n}",
  "sourcePath": "C:\\Users\\mayan\\OneDrive\\Desktop\\OrganicChain\\BackEnd\\contracts\\OrganicChain.sol",
  "compiler": {
    "name": "solc",
    "version": "0.8.10+commit.fc410830.Emscripten.clang"
  },
  "schemaVersion": "3.4.5",
  "updatedAt": "2022-04-23T22:06:36.782Z",
  "networkType": "ethereum",
  "devdoc": {
    "kind": "dev",
    "methods": {
      "getRoleAdmin(bytes32)": {
        "details": "Returns the admin role that controls `role`. See {grantRole} and {revokeRole}. To change a role's admin, use {_setRoleAdmin}."
      },
      "grantRole(bytes32,address)": {
        "details": "Grants `role` to `account`. If `account` had not been already granted `role`, emits a {RoleGranted} event. Requirements: - the caller must have ``role``'s admin role."
      },
      "hasRole(bytes32,address)": {
        "details": "Returns `true` if `account` has been granted `role`."
      },
      "renounceRole(bytes32,address)": {
        "details": "Revokes `role` from the calling account. Roles are often managed via {grantRole} and {revokeRole}: this function's purpose is to provide a mechanism for accounts to lose their privileges if they are compromised (such as when a trusted device is misplaced). If the calling account had been revoked `role`, emits a {RoleRevoked} event. Requirements: - the caller must be `account`."
      },
      "revokeRole(bytes32,address)": {
        "details": "Revokes `role` from `account`. If `account` had been granted `role`, emits a {RoleRevoked} event. Requirements: - the caller must have ``role``'s admin role."
      },
      "supportsInterface(bytes4)": {
        "details": "See {IERC165-supportsInterface}."
      }
    },
    "version": 1
  },
  "userdoc": {
    "kind": "user",
    "methods": {},
    "version": 1
  }
}